:020000040800F2
:10000000D0060020C5010008CD010008CF0100087E
:10001000D1010008D3010008D5010008000000004C
:10002000000000000000000000000000D7010008F0
:10003000D901000800000000DB010008DD01000814
:10004000DF010008DF010008DF010008DF01000810
:10005000DF010008DF010008DF010008DF01000800
:10006000DF010008DF010008DF010008C503000808
:10007000DD030008F50300080D040008250400084E
:100080003D04000855040008DF010008DF010008F6
:10009000DF010008DF010008DF010008DF010008C0
:1000A000DF010008DF010008DF010008DF010008B0
:1000B000DF010008DF010008DF010008DF010008A0
:1000C000DF010008DF010008DF010008DF01000890
:1000D000DF01000821060008DF010008DF01000839
:1000E000DF010008DF010008DF01000800F002F86E
:1000F00000F059F814A696E8000CB244B344DA456F
:1001000001D100F050F8BAE80F000FA696E83000D1
:10011000A5EB040504EB0607AAEB0704A7F101070A
:100120004FEA15154FEA3414A4F10104AC4201D38F
:1001300000F039F813F0010F18BFFB1A43F0010368
:1001400000F001F8DBE718473C0700005C070000FF
:10015000103A24BF78C878C1FAD8520724BF30C8F3
:1001600030C144BF04680C60704700007047000055
:100170000023002400250026103A28BF78C1FBD8B0
:10018000520728BF30C148BF0B6070471FB500F051
:10019000D9F804000020002100F04CFB401C6060F6
:1001A0001FBD10B510BD00F0D5F81146FFF7EEFFEA
:1001B00000F05AFA00F0F3F803B4FFF7F2FF03BCC3
:1001C00000F0F6F80948804709480047FEE7FEE7D7
:1001D000FEE7FEE7FEE7FEE7FEE7FEE7FEE7FEE7F7
:1001E00004480549054A064B704700001105000800
:1001F000ED000008D0000020D0060020D002002032
:10020000D002002010B500F09DF8001D10BD00BF09
:100210002506000040EA010310B59B070FD1042A10
:100220000DD310C808C9121F9C42F8D020BA19BAC1
:10023000884201D9012010BD4FF0FF3010BD1AB126
:10024000D30703D0521C07E0002010BD10F8013B7B
:1002500011F8014B1B1B07D110F8013B11F8014BA2
:100260001B1B01D1921EF1D1184610BD4FF00002A8
:1002700000B5134694469646203922BFA0E80C509C
:10028000A0E80C50B1F12001BFF4F7AF090728BF77
:10029000A0E80C5048BF0CC05DF804EB890028BFF3
:1002A00040F8042B08BF704748BF20F8022B11F01C
:1002B000804F18BF00F8012B704700004FF0013C41
:1002C00050F8042B51F8043B9A4221D1A2EB0C03C5
:1002D000934313EACC1317D150F8042B51F8043B85
:1002E0009A4215D1A2EB0C03934313EACC130BD122
:1002F00050F8042B51F8043B9A4209D1A2EB0C03AD
:10030000934313EACC13DBD04FF00000704700BFDB
:10031000D01A01BAB1FA81F101F0180122FA01F004
:10032000CB40DBB2C0B2C01AC1F120012CFA01F3FC
:10033000D11A914311EAC311E6D170477047704753
:1003400070470000004870472800002000487047B0
:10035000080000207546FFF7F9FFAE460500694624
:10036000534620F00700854618B020B5FFF738FF48
:10037000BDE820404FF000064FF000074FF00008A6
:100380004FF0000BAC46ACE8C009ACE8C009ACE8E3
:10039000C009ACE8C00921F007018D46704710B5CF
:1003A0000446AFF300802046BDE81040FFF704BFCD
:1003B00001491820ABBEFEE726000200704700008E
:1003C000704700000021C4F20201086800F00F002D
:1003D0004860FFF7F5BF0000704700000021C4F23D
:1003E00002010868C0F3031002014A60FFF7F4BF7E
:1003F000704700000021C4F202010868C0F3032026
:1004000002024A60FFF7F4BF704700000021C4F207
:1004100002010868C0F3033002034A60FFF7F4BF2B
:10042000704700000021C4F202010868C0F30340D5
:1004300002044A60FFF7F4BF704700000021C4F2D5
:1004400002010868C0F3035002054A60FFF7F4BFD9
:10045000704700000021C4F202010868C0F3036085
:1004600002064A60FFF7F4BF0F2931D870B5A0F13A
:100470008044A4F5843C840544EA9C2CBCF1060F1E
:100480000DD841F2180E40F66004C4F2020EC0F618
:10049000000454F82C50DEF800602E421DD02BB31F
:1004A0006FF01F0606EB8106082938BF8E004FF05B
:1004B0000F0528BF04300468B54024EA050505602F
:1004C00043EA82020368B2401A430260BDE870400A
:1004D0000020102938BF0120704754F82C60DEF846
:1004E00000502E43CEF80060002BD9D1032A08D04B
:1004F000022AD5D10126C5688E4025EA0606C660C7
:10050000CEE70122C6688A403243C2600222C7E7B2
:1005100082B041F20400C4F2020050F8041C002230
:1005200041F0010140F8041C0168CFF6FF021140C0
:10053000016050F8041C4FF6FF72CFF6F6621140CE
:1005400040F8041C50F8041C21F4802140F8041CDD
:10055000016821F4FE0101604FF41F014160002198
:100560000191009150F8041C41F4803140F8041CC2
:1005700050F8041C01F400310091019901310191FE
:10058000009919B90199B1F5A06FF1D150F8041C87
:10059000890354BF0021012100910099012936D11E
:1005A00042F20001C4F202010A6842F010020A603D
:1005B0000A6822F007020A600A6842F002020A6032
:1005C0000168016001680160016841F480610160B7
:1005D000016821F47C110160016841F4E8110160B7
:1005E00050F8041C41F0807140F8041C50F8041CC1
:1005F0008901FBD5016821F003010160016841F028
:1006000002010160016801F00C010829FAD14EF6DF
:100610000850CEF200004FF00061016002B0704758
:1006200080B543F60000C4F201000188890658BF76
:1006300080BD40F2CC0EC2F2000E8188DEF80020B0
:10064000622A10DC40F2680CC8B2531CC2F2000CE3
:10065000CEF800300A280CF8021002BF00200CF877
:100660000300CEF8000080BD40F20006C2F2000692
:1006700030684DF68367C4F21B37A0FB07014EF2CA
:1006800010054FF0FF30CEF2000500EB914068609E
:1006900000240520AC60286041F21800C4F202007A
:1006A000016842F22C0241F004010160016841F24C
:1006B000100841F48041016040F60400C4F20100DA
:1006C0000168C4F2010821F0F00101600168022311
:1006D00041F0B0010160016821F4706101600168BE
:1006E00041F480610160306848F2B511C1F64E31C5
:1006F000A0FB0101880A43F60C01C4F2010121F8B4
:10070000040C0888104308802020C5F8F400A8F1E4
:1007100010000D210022FFF7A7FE4FF40050C8F88B
:10072000000040F2CC0840F26809C2F20008C2F2B0
:1007300000094FF47A7A00BFD8F8000001285FDB87
:1007400099F800B0BBF1000F10D009F10108FFF7D4
:1007500059FD00BF026812F80B20D20708BF09F844
:1007600001BB18F801BBBBF1000FF3D189F80040C1
:1007700040F2680940F6800BC2F20009C0F6000B97
:10078000484659460322FFF745FD40F2CC08C2F225
:10079000000860B941F21000C4F201004FF00051AE
:1007A000016048466421FFF761FDC8F80040D9F8B0
:1007B000000046F26F61C0F2660188420CD141F23E
:1007C0001000C4F201004FF400510160484664215A
:1007D000FFF74CFDC8F80040484659460322FFF792
:1007E00019FD68B1D9F8000046F26F61C0F26601E8
:1007F000884205D048466421FFF738FDC8F800401C
:10080000322000BF3168A1FB0712910C01FB0AF1F5
:1008100001396960AC60296841F00101296000BFBD
:100820002968C903FCD52968013821F00101296034
:10083000E8D181E710B500290AD00878002807D050
:1008400005487844FFF73AFD002801D0002010BD8C
:100850000248784410BD0000620000005A00000009
:10086000040000000800000010000000200000004C
:100870004000000080000000000100006F6666007C
:100880006F6E0000B40900080000002004000000A2
:1008900050010008B809000808000020C806000040
:1008A000700100081001000043000000F8FFFFFF86
:1008B0000040404040404040404041414141414073
:1008C0004040404040404040404040404040404028
:1008D00040050202020202020202020202020202B7
:1008E00002202020202020202020200202020202BC
:1008F0000202909090909090101010101010101014
:10090000101010101010101010101010020202021F
:100910000202888888888888080808080808080863
:10092000080808080808080808080808020202025F
:100930004000000000000000000000000000000077
:1009400000000000000000000000000000000000A7
:100950000000000000000000000000000000000097
:100960000000000000000000000000000000000087
:100970000000000000000000000000000000000077
:100980000000000000000000000000000000000067
:100990000000000000000000000000000000000057
:1009A0000000000000000000000000000000000047
:0809B0000000000000A24A044F
:04000005080001C529
:00000001FF
